C51 COMPILER V9.59.0.0   MAIN                                                              03/09/2021 14:06:09 PAGE 1   


C51 COMPILER V9.59.0.0, COMPILATION OF MODULE MAIN
OBJECT MODULE PLACED IN .\list\main.obj
COMPILER INVOKED BY: C:\Keil_v5\C51\BIN\C51.EXE main.c OPTIMIZE(8,SPEED) BROWSE DEBUG OBJECTEXTEND PRINT(.\list\main.lst
                    -) TABS(2) OBJECT(.\list\main.obj)

line level    source

   1          /*---------------------------------------------------------------------*/
   2          /* --- STC MCU Limited ------------------------------------------------*/
   3          /* --- STC 1T Series MCU Demo Programme -------------------------------*/
   4          /* --- Mobile: (86)13922805190 ----------------------------------------*/
   5          /* --- Fax: 86-0513-55012956,55012947,55012969 ------------------------*/
   6          /* --- Tel: 86-0513-55012928,55012929,55012966 ------------------------*/
   7          /* --- Web: www.STCMCU.com --------------------------------------------*/
   8          /* --- Web: www.STCMCUDATA.com  ---------------------------------------*/
   9          /* --- QQ:  800003751 -------------------------------------------------*/
  10          /* 如果要在程序中使用此代码,请在程序中注明使用了STC的资料及程序            */
  11          /*---------------------------------------------------------------------*/
  12          
  13          #include  "config.h"
  14          #include  "GPIO.h"
  15          #include  "PCA.h"
  16          #include  "delay.h"
  17          
  18          /*************   功能说明   ***************
  19          
  20          本例程基于STC8G1K08-20PIN进行编写测试，STC8G系列芯片可通用参考.
  21          
  22          输出3路变化的PWM信号, 类似"呼吸灯"的驱动.
  23          PWM0  为8位PWM.
  24          PWM1  为7位PWM.
  25          PWM2  为10位PWM.
  26          
  27          下载时, 选择时钟 24MHz (用户可在"config.h"修改频率).
  28          
  29          ******************************************/
  30          
  31          /*************  本地常量声明  **************/
  32          
  33          
  34          /*************  本地变量声明  **************/
  35          
  36          u16 pwm0,pwm1,pwm2;
  37          bit B_PWM0_Dir,B_PWM1_Dir,B_PWM2_Dir; //方向, 0为+, 1为-.
  38          
  39          /*************  本地函数声明  **************/
  40          
  41          
  42          /*************  外部函数和变量声明 *****************/
  43          
  44          
  45          /******************** IO口配置 ********************/
  46          void  GPIO_config(void)
  47          {
  48   1        GPIO_InitTypeDef  GPIO_InitStructure;       //结构定义
  49   1      
  50   1        GPIO_InitStructure.Pin  = GPIO_Pin_All;     //指定要初始化的IO, GPIO_Pin_0 ~ GPIO_Pin_7, 或操作
  51   1        GPIO_InitStructure.Mode = GPIO_PullUp;      //指定IO的输入或输出方式,GPIO_PullUp,GPIO_HighZ,GPIO_OUT_OD,GPIO
             -_OUT_PP
  52   1        GPIO_Inilize(GPIO_P1,&GPIO_InitStructure);  //初始化
  53   1      
C51 COMPILER V9.59.0.0   MAIN                                                              03/09/2021 14:06:09 PAGE 2   

  54   1        GPIO_InitStructure.Pin  = GPIO_Pin_7;       //指定要初始化的IO, GPIO_Pin_0 ~ GPIO_Pin_7, 或操作
  55   1        GPIO_InitStructure.Mode = GPIO_PullUp;      //指定IO的输入或输出方式,GPIO_PullUp,GPIO_HighZ,GPIO_OUT_OD,GPIO
             -_OUT_PP
  56   1        GPIO_Inilize(GPIO_P3,&GPIO_InitStructure);  //初始化
  57   1      }
  58          
  59          /******************** PCA配置 ********************/
  60          void  PCA_config(void)
  61          {
  62   1        PCA_InitTypeDef   PCA_InitStructure;
  63   1      
  64   1        PCA_InitStructure.PCA_Clock    = PCA_Clock_1T;    //PCA_Clock_1T, PCA_Clock_2T, PCA_Clock_4T, PCA_Clock_6T,
             - PCA_Clock_8T, PCA_Clock_12T, PCA_Clock_Timer0_OF, PCA_Clock_ECI
  65   1        PCA_InitStructure.PCA_IoUse    = PCA_P12_P11_P10_P37; //PCA_P12_P11_P10_P37, PCA_P34_P35_P36_P37, PCA_P24
             -_P25_P26_P27
  66   1        PCA_InitStructure.PCA_Interrupt_Mode = DISABLE;   //ENABLE, DISABLE
  67   1        PCA_InitStructure.PCA_Polity   = Polity_0;      //指定中断优先级(低到高) Polity_0,Polity_1,Polity_2,Polity_3
  68   1        PCA_InitStructure.PCA_RUN      = DISABLE;       //ENABLE, DISABLE
  69   1        PCA_Init(PCA_Counter,&PCA_InitStructure);     //设置公用Counter
  70   1      
  71   1        PCA_InitStructure.PCA_Mode     = PCA_Mode_PWM;    //PCA_Mode_PWM, PCA_Mode_Capture, PCA_Mode_SoftTimer, PCA
             -_Mode_HighPulseOutput
  72   1        PCA_InitStructure.PCA_PWM_Wide = PCA_PWM_8bit;    //PCA_PWM_8bit, PCA_PWM_7bit, PCA_PWM_6bit, PCA_PWM_10bit
  73   1        PCA_InitStructure.PCA_Interrupt_Mode = DISABLE;   //PCA_Rise_Active, PCA_Fall_Active, ENABLE, DISABLE
  74   1        PCA_InitStructure.PCA_Value    = 128 << 8;        //对于PWM,高8位为PWM占空比
  75   1        PCA_Init(PCA0,&PCA_InitStructure);
  76   1      
  77   1        PCA_InitStructure.PCA_Mode     = PCA_Mode_PWM;    //PCA_Mode_PWM, PCA_Mode_Capture, PCA_Mode_SoftTimer, PCA
             -_Mode_HighPulseOutput
  78   1        PCA_InitStructure.PCA_PWM_Wide = PCA_PWM_7bit;    //PCA_PWM_8bit, PCA_PWM_7bit, PCA_PWM_6bit, PCA_PWM_10bit
  79   1        PCA_InitStructure.PCA_Interrupt_Mode = DISABLE;   //PCA_Rise_Active, PCA_Fall_Active, ENABLE, DISABLE
  80   1        PCA_InitStructure.PCA_Value    = 64 << 8;         //对于PWM,高8位为PWM占空比
  81   1        PCA_Init(PCA1,&PCA_InitStructure);
  82   1      
  83   1        PCA_InitStructure.PCA_Mode     = PCA_Mode_PWM;    //PCA_Mode_PWM, PCA_Mode_Capture, PCA_Mode_SoftTimer, PCA
             -_Mode_HighPulseOutput
  84   1        PCA_InitStructure.PCA_PWM_Wide = PCA_PWM_10bit;   //PCA_PWM_8bit, PCA_PWM_7bit, PCA_PWM_6bit, PCA_PWM_10bi
             -t
  85   1        PCA_InitStructure.PCA_Interrupt_Mode = DISABLE;   //PCA_Rise_Active, PCA_Fall_Active, ENABLE, DISABLE
  86   1        PCA_InitStructure.PCA_Value    = 32 << 8;         //对于PWM,高8位为PWM占空比
  87   1        PCA_Init(PCA2,&PCA_InitStructure);
  88   1      
  89   1        CR = 1;             //启动PCA
  90   1      }
  91          
  92          
  93          /******************** task A **************************/
  94          void main(void)
  95          {
  96   1        GPIO_config();
  97   1        PCA_config();
  98   1        pwm0 = 128;
  99   1        pwm1 = 64;
 100   1        pwm2 = 512;
 101   1        B_PWM0_Dir = 0;
 102   1        B_PWM1_Dir = 0;
 103   1        B_PWM2_Dir = 0;
 104   1      
 105   1        UpdatePwm(PCA0,pwm0);
 106   1        UpdatePwm(PCA1,pwm1);
 107   1        UpdatePwm(PCA2,pwm2);
 108   1      //  EA = 1;
C51 COMPILER V9.59.0.0   MAIN                                                              03/09/2021 14:06:09 PAGE 3   

 109   1        
 110   1        while (1)
 111   1        {
 112   2          delay_ms(20);
 113   2      
 114   2          if(B_PWM0_Dir)
 115   2          {
 116   3              if(--pwm0 <= 16)  B_PWM0_Dir = 0; //8位PWM
 117   3          }
 118   2          else  if(++pwm0 >= 240) B_PWM0_Dir = 1; //8位PWM
 119   2          UpdatePwm(PCA0,pwm0);
 120   2      
 121   2          if(B_PWM1_Dir)
 122   2          {
 123   3              if(--pwm1 <= 8)   B_PWM1_Dir = 0; //7位PWM
 124   3          }
 125   2          else  if(++pwm1 >= 120) B_PWM1_Dir = 1; //7位PWM
 126   2          UpdatePwm(PCA1,pwm1);
 127   2      
 128   2          if(B_PWM2_Dir)
 129   2          {
 130   3              if(--pwm2 <= 24)    B_PWM2_Dir = 0; //10位PWM
 131   3          }
 132   2          else  if(++pwm2 >= 1000)  B_PWM2_Dir = 1; //10位PWM
 133   2          UpdatePwm(PCA2,pwm2);
 134   2        }
 135   1      }
 136          
 137          
 138          


MODULE INFORMATION:   STATIC OVERLAYABLE
   CODE SIZE        =    351    ----
   CONSTANT SIZE    =   ----    ----
   XDATA SIZE       =   ----    ----
   PDATA SIZE       =   ----    ----
   DATA SIZE        =      6      11
   IDATA SIZE       =   ----    ----
   BIT SIZE         =      3    ----
END OF MODULE INFORMATION.


C51 COMPILATION COMPLETE.  0 WARNING(S),  0 ERROR(S)
